:100000000C942A000C9447000C9447000C94470071
:100010000C9447000C9447000C9447000C94470044
:100020000C9447000C9447000C9447000C94DC0897
:100030000C9447000C9447000C9447000C94470024
:100040000C9447000C9447000C9447000C94470014
:100050000C94470011241FBECFE5D8E0DEBFCDBF12
:1000600011E0A8E6B1E001C01D92A937B107E1F7A0
:1000700011E0A0E6B0E0E0E2F0E202C005900D92EF
:10008000A836B107D9F70E94C60F0C940E100C9435
:100090000000EF92FF920F931F937B018C0120E0F1
:1000A00030E040E05FE40E94F50388238CF0C80153
:1000B000B70120E030E040E05FE40E94C1010E940F
:1000C00055049B01AC01205030404040504806C0D0
:1000D000C801B7010E9455049B01AC01B901CA01D6
:1000E0001F910F91FF90EF900895A0E0B0E0EBE733
:1000F000F0E00C94D70FDC012B01FA019C919230B7
:1001000008F439C1EB018881823008F433C194309E
:1001100069F4843009F02FC111969C91119789815F
:10012000981709F428C1A0E6B0E025C1843009F48D
:1001300021C18230A9F4923009F01DC19A01AD01AC
:1001400088E0EA010990AE01E90109929E0181501F
:10015000C1F7E201898111969C918923818308C1AD
:10016000923009F407C112962D903C901397EB0141
:100170008A819B811496AD90BD90CD90DC901797AD
:10018000EC80FD800E811F819101281B390BB90184
:1001900037FF04C066277727621B730B6032710537
:1001A0000CF061C0121613066CF537014801062EDB
:1001B00004C096948794779467940A94D2F721E0C8
:1001C00030E040E050E004C0220F331F441F551FB1
:1001D0006A95D2F721503040404050402E213F21B7
:1001E00040235123211531054105510521F021E01E
:1001F00030E040E050E079018A01E628F72808293C
:1002000019293CC0232BD1F1260E371E350146019A
:10021000062E04C096948794779467940A94D2F734
:1002200021E030E040E050E004C0220F331F441FC3
:10023000551F6A95D2F721503040404050402A2146
:100240003B214C215D21211531054105510521F04E
:1002500021E030E040E050E059016A01A628B728CB
:10026000C828D9280BC0821593052CF01C01AA249C
:10027000BB24650103C0EE24FF24870111969C91E5
:10028000D20111968C91981709F445C0992339F041
:10029000A80197012A193B094C095D0906C0A6016E
:1002A00095012E193F09400B510B57FD08C01182D3
:1002B0003382228224833583468357831DC081E0A5
:1002C00081833382228288279927DC01821B930B4A
:1002D000A40BB50B84839583A683B7830DC0220F2F
:1002E000331F441F551F24833583468357838281E0
:1002F000938101979383828324813581468157813D
:10030000DA01C9010197A109B1098F5F9F4FAF4F72
:10031000BF4328F30BC0918333822282EA0CFB1C7B
:100320000C1D1D1DE482F5820683178383E0808304
:10033000248135814681578157FF1AC0C901AA27F8
:1003400097FDA095BA2F81709070A070B0705695EF
:10035000479537952795822B932BA42BB52B848318
:100360009583A683B7838281938101969383828349
:10037000DF0101C0D201CD01CDB7DEB7E2E10C94BF
:10038000F30FA0E2B0E0E7ECF1E00C94E30F698337
:100390007A838B839C832D833E834F835887E9E048
:1003A000EE2EF12CEC0EFD1ECE010196B7010E943F
:1003B00046068E010F5E1F4FCE010596B8010E94C2
:1003C00046068A8991E089278A8BC701B801AE0168
:1003D000475E5F4F0E9475000E947105A096E6E09F
:1003E0000C94FF0FA0E2B0E0E8EFF1E00C94E30F13
:1003F00069837A838B839C832D833E834F835887C5
:10040000F9E0EF2EF12CEC0EFD1ECE010196B701A6
:100410000E9446068E010F5E1F4FCE010596B80161
:100420000E944606C701B801AE01475E5F4F0E94B9
:1004300075000E947105A096E6E00C94FF0FA0E203
:10044000B0E0E5E2F2E00C94D70F69837A838B8306
:100450009C832D833E834F835887CE010196BE0136
:10046000675F7F4F0E944606CE010596BE016F5E14
:100470007F4F0E9446069985923088F089898230A4
:10048000C8F0943019F4823051F404C0843029F457
:10049000923081F480E690E0C6C0923049F420E0CA
:1004A0009A858A89981321E02A87CE010996BBC0D4
:1004B000823049F420E09A858A89981321E02A8BBA
:1004C000CE014196B0C02D843E844F8458886D88FB
:1004D0007E888F88988CEE24FF248701AA24BB2471
:1004E000650140E050E060E070E0E0E0F0E0C10174
:1004F00081709070892BE9F0E60CF71C081D191D1E
:100500009A01AB012A0D3B1D4C1D5D1D80E090E062
:10051000A0E0B0E0E614F7040805190520F481E036
:1005200090E0A0E0B0E0BA01A901480F591F6A1F8E
:100530007B1FAA0CBB1CCC1CDD1C97FE08C081E0F5
:1005400090E0A0E0B0E0A82AB92ACA2ADB2A3196B6
:10055000E032F10549F0660C771C881C991C569412
:10056000479437942794C3CFFA85EA892B893C892D
:100570008B859C85280F391F2E5F3F4F17C0CA01FE
:1005800081709070892B61F016950795F794E79428
:1005900080E090E0A0E0B0E8E82AF92A0A2B1B2BC3
:1005A00076956795579547952F5F3F4F77FDE7CF36
:1005B0000CC0440F551F661F771F17FD4160EE0CDE
:1005C000FF1C001F111F21503040403090E05907A0
:1005D00090E0690790E4790760F32B8F3C8FDB0193
:1005E000CA018F779070A070B07080349105A1051A
:1005F000B10561F447FD0AC0E114F10401051105DC
:1006000029F0405C5F4F6F4F7F4F40781A8EFE1786
:1006100011F081E08A8F4D8F5E8F6F8F78A383E01A
:10062000898FCE0149960E947105A096E2E10C9453
:10063000F30FA8E1B0E0EFE1F3E00C94DF0F698382
:100640007A838B839C832D833E834F835887B9E0C5
:10065000EB2EF12CEC0EFD1ECE010196B7010E948F
:1006600046068E010F5E1F4FCE010596B8010E940F
:1006700046062985223008F47EC03989323010F4CC
:10068000B8017CC08A859A8989278A87243011F02D
:10069000223031F4231709F06EC060E670E06EC0BE
:1006A000343039F41D861E861F86188A1C861B86E8
:1006B00004C0323021F484E08987B7015FC02B8504
:1006C0003C858B899C89281B390B3C872B87ED84C3
:1006D000FE840F851889AD88BE88CF88D88CEA142F
:1006E000FB040C051D0540F4EE0CFF1C001F111F40
:1006F000215030403C872B8720E030E040E050E044
:1007000080E090E0A0E0B0E460E070E0EA14FB0478
:100710000C051D0540F0282B392B4A2B5B2BEA18C2
:10072000FB080C091D09B695A79597958795EE0CC2
:10073000FF1C001F111F6F5F7F4F6F31710531F775
:10074000DA01C9018F779070A070B0708034910584
:10075000A105B10561F427FD0AC0E114F10401050A
:10076000110529F0205C3F4F4F4F5F4F20782D87B8
:100770003E874F87588BBE01675F7F4FCB010E943A
:1007800071056896EAE00C94FB0FA8E1B0E0EBEC91
:10079000F3E00C94E30F69837A838B839C832D832E
:1007A0003E834F83588789E0E82EF12CEC0EFD1E26
:1007B000CE010196B7010E9446068E010F5E1F4FC3
:1007C000CE010596B8010E9446068985823040F028
:1007D0008989823028F0C701B8010E94BE0601C095
:1007E00081E06896E6E00C94FF0FA8E1B0E0EBEF43
:1007F000F3E00C94E30F69837A838B839C832D83CE
:100800003E834F83588789E0E82EF12CEC0EFD1EC5
:10081000CE010196B7010E9446068E010F5E1F4F62
:10082000CE010596B8010E9446068985823040F0C7
:100830008989823028F0C701B8010E94BE0601C034
:100840008FEF6896E6E00C94FF0FA8E1B0E0EBE2D2
:10085000F4E00C94E30F69837A838B839C832D836C
:100860003E834F83588789E0E82EF12CEC0EFD1E65
:10087000CE010196B7010E9446068E010F5E1F4F02
:10088000CE010596B8010E9446068985823040F067
:100890008989823028F0C701B8010E94BE0601C0D4
:1008A00081E06896E6E00C94FF0FACE0B0E0EBE589
:1008B000F4E00C94E70F69837A838B839C83CE01E9
:1008C0000196BE016B5F7F4F0E9446068D8182308C
:1008D00061F1823050F1843021F48E81882351F10E
:1008E0002EC02F81388537FD20C06E812F31310514
:1008F0001CF06623F9F023C08EE190E0821B930B7D
:1009000029853A854B855C8504C056954795379572
:1009100027958A95D2F76623B1F05095409530958A
:1009200021953F4F4F4F5F4F0EC020E030E040E039
:1009300050E009C02FEF3FEF4FEF5FE704C020E02A
:1009400030E040E050E8B901CA012C96E2E00C9496
:100950000310A8E0B0E0EFEAF4E00C94DF0F7B01B5
:100960008C01611571058105910519F482E0898377
:1009700060C083E089838EE1C82ED12CDC82CB82DB
:10098000ED82FE820F831887C801B7010E942205FD
:10099000FC013197F7FF3BC0222733272E1B3F0B6B
:1009A00057016801022E04C0D694C794B794A79447
:1009B0000A94D2F740E050E060E070E081E090E01F
:1009C000A0E0B0E004C0880F991FAA1FBB1F2A95A2
:1009D000D2F70197A109B1098E219F21A023B1234C
:1009E0000097A105B10521F041E050E060E070E022
:1009F0004A295B296C297D294D835E836F83788723
:100A00008EE190E08E1B9F0B9C838B8312C03097EE
:100A100081F00E2E04C0EE0CFF1C001F111F0A9463
:100A2000D2F7ED82FE820F831887CE1ADF0ADC82AE
:100A3000CB821A82CE0101960E9471052896EAE0C7
:100A40000C94FB0FEF92FF920F931F937B018C018D
:100A500080E0E81680E0F80681E0080780E01807EB
:100A600088F48FEFE816F1040105110531F028F044
:100A700088E090E0A0E0B0E017C080E090E0A0E067
:100A8000B0E012C080E0E81680E0F80680E00807D9
:100A900081E0180728F088E190E0A0E0B0E004C011
:100AA00080E190E0A0E0B0E020E230E040E050E003
:100AB000281B390B4A0B5B0B04C016950795F7945E
:100AC000E7948A95D2F7F701E859FF4F8081281BF8
:100AD000310941095109C9011F910F91FF90EF9010
:100AE0000895DF92EF92FF920F931F93FC01E48031
:100AF000F58006811781D1808081823048F480E0C2
:100B000090E0A0E1B0E0E82AF92A0A2B1B2BA5C04F
:100B1000843009F49FC0823021F4EE24FF24870141
:100B200005C0E114F1040105110519F4E0E0F0E05D
:100B300096C0628173819FEF623879070CF05BC0C9
:100B400022E83FEF261B370B2A3131052CF020E03D
:100B500030E040E050E02AC0B801A701022E04C0F6
:100B600076956795579547950A94D2F781E090E07E
:100B7000A0E0B0E004C0880F991FAA1FBB1F2A95F0
:100B8000D2F70197A109B1098E219F21A023B1239A
:100B90000097A105B10521F081E090E0A0E0B0E070
:100BA0009A01AB01282B392B4A2B5B2BDA01C901A7
:100BB0008F779070A070B07080349105A105B10559
:100BC00039F427FF09C0205C3F4F4F4F5F4F04C0EF
:100BD000215C3F4F4F4F5F4FE0E0F0E02030A0E05E
:100BE0003A07A0E04A07A0E45A0710F0E1E0F0E07D
:100BF00079018A0127C06038710564F5FB01E1586D
:100C0000FF4FD801C7018F779070A070B07080340B
:100C10009105A105B10539F4E7FE0DC080E490E02F
:100C2000A0E0B0E004C08FE390E0A0E0B0E0E80E08
:100C3000F91E0A1F1B1F17FF05C016950795F7948D
:100C4000E794319687E016950795F794E7948A958F
:100C5000D1F705C0EE24FF248701EFEFF0E06E2FFF
:100C6000679566276795902F9F77D794DD24D79453
:100C70008E2F8695492F462B582F5D29B701CA0123
:100C80001F910F91FF90EF90DF900895FC01DB0121
:100C9000408151812281622F6F7770E0221F2227CD
:100CA000221F9381892F880F822B282F30E0991FD4
:100CB0009927991F11969C93119721153105A9F534
:100CC000411551056105710511F482E037C082E8D4
:100CD0009FEF13969C938E9312979A01AB0167E056
:100CE000220F331F441F551F6A95D1F783E08C9361
:100CF0000DC0220F331F441F551F12968D919C91DA
:100D00001397019713969C938E931297203080E04F
:100D1000380780E0480780E4580758F314962D936D
:100D20003D934D935C93179708952F3F310579F4C8
:100D3000411551056105710519F484E08C930895FE
:100D400064FF03C081E08C9312C01C9210C02F5727
:100D5000304013963C932E93129783E08C9387E058
:100D6000440F551F661F771F8A95D1F7706414963C
:100D70004D935D936D937C93179708951F93DC01BA
:100D8000FB019C91923008F447C08081823008F4C6
:100D900043C0943051F411961C91843099F58181AF
:100DA000682F70E0611B71093FC0843021F09230E0
:100DB00031F48230B9F18181882389F12DC01196F7
:100DC0001C9111978230F1F081811817D9F4129695
:100DD0002D913C911397828193818217930794F010
:100DE00028173907BCF014968D919D910D90BC91F8
:100DF000A02D2481358146815781281739074A075C
:100E00005B0718F4112341F00AC082179307A40767
:100E1000B50740F4112319F061E070E005C06FEFF1
:100E20007FEF02C060E070E0CB011F910895DF9377
:100E3000CF930F92CDB7DEB71982A3E5B0E0E3E51B
:100E4000F0E08081887F8C93A3E5B0E0E3E5F0E0FB
:100E5000808183608C93A3E5B0E0E3E5F0E08081DE
:100E60008F7C8C93A3E5B0E0E3E5F0E080818C9388
:100E7000A9E5B0E0E9E5F0E080818E7F8C93A9E5FB
:100E8000B0E0E9E5F0E080818D7F8C93A3E5B0E0F0
:100E9000E3E5F0E080818F7B8C93A3E5B0E0E3E5B0
:100EA000F0E08081877F8C9381E0898389810F9036
:100EB000CF91DF910895EF92FF920F931F93DF93ED
:100EC000CF93CDB7DEB7A3970FB6F894DEBF0FBEB2
:100ED000CDBF6E8F7F8F88A399A31D8E8FE692E181
:100EE000A3E8BBE3898F9A8FAB8FBC8F698D7A8D16
:100EF0008B8D9C8D20E030E040E853E40E941F027F
:100F0000DC01CB018D8B9E8BAF8BB88F6E8D7F8D6F
:100F100088A199A10E94A904DC01CB01BC01CD01EB
:100F20002D893E894F89588D0E941903DC01CB0120
:100F3000898B9A8BAB8BBC8B69897A898B899C89CD
:100F40000E944900DC01CB010196A11DB11D8D87D6
:100F50009E87AF87B88B69897A898B899C890E9423
:100F60004900DC01CB01BC01CD010E94A9049B0119
:100F7000AC0169897A898B899C890E94C101DC0155
:100F8000CB0189879A87AB87BC8769857A858B85F2
:100F90009C8520E030E040E050E00E94C5038823BB
:100FA00009F49BC069857A858B859C8520E030E0BB
:100FB00040E853E40E941F02DC01CB01BC01CD01DB
:100FC0000E944900DC01CB018D839E83AF83B887EB
:100FD00020E031E040E050E08D819E81AF81B88516
:100FE00079018A01E81AF90A0A0B1B0BD801C7011B
:100FF000BC01CD010E94A904DC01CB0189839A8345
:10100000AB83BC8369817A818B819C810E9449007A
:10101000DC01CB01BC01CD010E94A9049B01AC0104
:1010200069817A818B819C810E94C101DC01CB01A5
:101030001BA2BC01CD0120E030E040E05FE30E9454
:10104000F503882314F001E00BA381E01BA18127A5
:101050008823B1F569817A818B819C810E94490046
:10106000DC01CB01BC01CD010E94A9049B01AC01B4
:1010700069817A818B819C810E94C101DC01CB0155
:101080001AA2BC01CD0120E030E040E85FE30E94FD
:101090002504882314F481E08AA381E09AA189279A
:1010A000882371F402E510E069817A818B819C814B
:1010B0000E944900DC01CB018F5FF80180833CC0B6
:1010C00002E510E069817A818B819C810E94490050
:1010D000DC01CB01F80180832FC069897A898B8973
:1010E0009C890E944900DC01CB018093740190939C
:1010F0007501A0937601B0937701E2E5F0E01082EC
:101100001BC0E8E5F0E08081882F90E0817090704E
:101110000097B9F3A8E5B0E0E8E5F0E080818160F0
:101120008C938D859E85AF85B8890197A109B109FA
:101130008D879E87AF87B88B8D859E85AF85B88953
:101140000097A105B105E9F681E08D8F8D8DA396FD
:101150000FB6F894DEBF0FBECDBFCF91DF911F91C8
:101160000F91FF90EF900895DF93CF930F92CDB73B
:10117000DEB71982A9E5B0E0E9E5F0E080818160A1
:101180008C9381E0898389810F90CF91DF910895BD
:10119000DF93CF930F92CDB7DEB71982A9E5B0E008
:1011A000E9E5F0E080818E7F8C9381E089838981FD
:1011B0000F90CF91DF9108951F920F920FB60F926B
:1011C00011242F933F934F935F936F937F938F934C
:1011D0009F93AF93BF93EF93FF93DF93CF93CDB7DD
:1011E000DEB78091680190916901009709F43EC0D3
:1011F0008091700190917101A0917201B091730181
:101200000196A11DB11D8093700190937101A0936F
:101210007201B0937301209170013091710140917E
:101220007201509173018091740190917501A091A8
:101230007601B0917701281739074A075B07B1F4A7
:10124000109270011092710110927201109273014C
:10125000E2E5F0E0809178018083E0916801F0910F
:10126000690180916C0190916D010995CF91DF9199
:10127000FF91EF91BF91AF919F918F917F916F916E
:101280005F914F913F912F910F900FBE0F901F9044
:101290001895DF93CF930F92CDB7DEB71982EAE3AB
:1012A000F0E081EB8083EBE3F0E086E18083E7E32D
:1012B000F0E083EC8083E8E3F0E083E38083E4E321
:1012C000F0E083EC8083E5E3F0E083E38083E1E317
:1012D000F0E083EC8083E2E3F0E083E3808381E06D
:1012E000898389810F90CF91DF910895DF93CF9308
:1012F00000D000D000D0CDB7DEB78A836B834C839B
:1013000019828A81843008F0DAC08B81883008F035
:10131000D6C08C81823008F0D2C08A81282F30E07C
:101320003E832D836D817E816130710509F443C058
:101330008D819E818230910534F42D813E8121156D
:10134000310571F0B9C06D817E816230710509F49B
:101350005DC08D819E818330910509F482C0ACC04F
:10136000AAE3B0E0EAE3F0E08081482F8B81282FE8
:1013700030E081E090E002C0880F991F2A95E2F7E3
:10138000809584238C93AAE3B0E0EAE3F0E08081C7
:10139000482F8C81282F30E08B81882F90E0B90175
:1013A00002C0660F771F8A95E2F7CB01842B8C93DE
:1013B00081E0898386C0A7E3B0E0E7E3F0E08081C5
:1013C000482F8B81282F30E081E090E002C0880F09
:1013D000991F2A95E2F7809584238C93A7E3B0E0C8
:1013E000E7E3F0E08081482F8C81282F30E08B816B
:1013F000882F90E0B90102C0660F771F8A95E2F747
:10140000CB01842B8C9381E089835BC0A4E3B0E0A3
:10141000E4E3F0E08081482F8B81282F30E081E0E9
:1014200090E002C0880F991F2A95E2F780958423E7
:101430008C93A4E3B0E0E4E3F0E08081482F8C815A
:10144000282F30E08B81882F90E0B90102C0660F11
:10145000771F8A95E2F7CB01842B8C9381E08983F7
:1014600030C0A1E3B0E0E1E3F0E08081482F8B8160
:10147000282F30E081E090E002C0880F991F2A9564
:10148000E2F7809584238C93A1E3B0E0E1E3F0E000
:101490008081482F8C81282F30E08B81882F90E02D
:1014A000B90102C0660F771F8A95E2F7CB01842B42
:1014B0008C9381E0898305C083E0898302C083E047
:1014C0008983898126960FB6F894DEBF0FBECDBF03
:1014D000CF91DF910895DF93CF9300D000D000D05B
:1014E000CDB7DEB78A836B834C8319828A818430BF
:1014F00008F0DDC08B81883008F0D9C08C81823043
:1015000020F08C81823008F0D2C08A81282F30E010
:101510003E832D836D817E816130710509F443C066
:101520008D819E818230910534F42D813E8121157B
:10153000310571F0B9C06D817E816230710509F4A9
:101540005DC08D819E818330910509F482C0ACC05D
:10155000ABE3B0E0EBE3F0E08081482F8B81282FF4
:1015600030E081E090E002C0880F991F2A95E2F7F1
:10157000809584238C93ABE3B0E0EBE3F0E08081D3
:10158000482F8C81282F30E08B81882F90E0B90183
:1015900002C0660F771F8A95E2F7CB01842B8C93EC
:1015A00081E0898386C0A8E3B0E0E8E3F0E08081D1
:1015B000482F8B81282F30E081E090E002C0880F17
:1015C000991F2A95E2F7809584238C93A8E3B0E0D5
:1015D000E8E3F0E08081482F8C81282F30E08B8178
:1015E000882F90E0B90102C0660F771F8A95E2F755
:1015F000CB01842B8C9381E089835BC0A5E3B0E0B1
:10160000E5E3F0E08081482F8B81282F30E081E0F6
:1016100090E002C0880F991F2A95E2F780958423F5
:101620008C93A5E3B0E0E5E3F0E08081482F8C8166
:10163000282F30E08B81882F90E0B90102C0660F1F
:10164000771F8A95E2F7CB01842B8C9381E0898305
:1016500030C0A2E3B0E0E2E3F0E08081482F8B816C
:10166000282F30E081E090E002C0880F991F2A9572
:10167000E2F7809584238C93A2E3B0E0E2E3F0E00C
:101680008081482F8C81282F30E08B81882F90E03B
:10169000B90102C0660F771F8A95E2F7CB01842B50
:1016A0008C9381E0898305C083E0898302C083E055
:1016B0008983898126960FB6F894DEBF0FBECDBF11
:1016C000CF91DF910895DF93CF9300D000D00F9298
:1016D000CDB7DEB78A836B8319828A81843008F0A4
:1016E0007FC08B81883008F07BC08A81282F30E052
:1016F0003D832C838C819D818130910561F12C810A
:101700003D81223031052CF48C819D81009769F058
:1017100064C02C813D812230310599F18C819D81FD
:101720008330910509F443C058C0ABE3B0E0EBE36C
:10173000F0E08081482F8B81282F30E081E090E01D
:10174000022E02C0880F991F0A94E2F784278C9317
:1017500081E0898347C0A8E3B0E0E8E3F0E080815E
:10176000482F8B81282F30E081E090E0022E02C0CC
:10177000880F991F0A94E2F784278C9381E089836C
:1017800031C0A5E3B0E0E5E3F0E08081482F8B8134
:10179000282F30E081E090E0022E02C0880F991FD0
:1017A0000A94E2F784278C9381E089831BC0A2E32B
:1017B000B0E0E2E3F0E08081482F8B81282F30E019
:1017C00081E090E0022E02C0880F991F0A94E2F790
:1017D00084278C9381E0898305C083E0898302C0DC
:1017E00083E0898389810F900F900F900F900F9065
:1017F000CF91DF910895DF93CF93CDB7DEB72797D1
:101800000FB6F894DEBF0FBECDBF8A836B835D83B6
:101810004C8319828C819D81009709F487C08A814D
:10182000843008F080C08B81883008F07CC08A81C9
:10183000282F30E03F832E834E815F814130510558
:1018400069F18E819F818230910534F42E813F8130
:101850002115310569F064C04E815F814230510528
:1018600099F18E819F818330910509F443C058C05E
:10187000E9E3F0E08081282F30E08B81882F90E031
:10188000A90102C0559547958A95E2F7CA01817072
:10189000EC81FD81808381E089834AC0E9E3F0E047
:1018A0008081282F30E08B81882F90E0A90102C031
:1018B000559547958A95E2F7CA018170EC81FD81C3
:1018C000808381E0898334C0E9E3F0E08081282FC0
:1018D00030E08B81882F90E0A90102C05595479593
:1018E0008A95E2F7CA018170EC81FD81808381E0F5
:1018F00089831EC0E9E3F0E08081282F30E08B81EE
:10190000882F90E0A90102C0559547958A95E2F786
:10191000CA018170EC81FD81808381E0898308C0E8
:1019200083E0898305C083E0898302C082E08983E4
:10193000898127960FB6F894DEBF0FBECDBFCF9139
:10194000DF910895DF93CF93CDB7DEB70E941707DD
:1019500083E060E041E00E94760983E061E041E0DD
:101960000E94760983E062E041E00E94760983E00C
:1019700063E041E00E947609CF91DF910895DF9303
:10198000CF930F92CDB7DEB71982D3C083E062E068
:1019900040E00E946B0A83E063E041E00E946B0A32
:1019A00083E060E040E00E946B0A83E061E040E099
:1019B0000E946B0A64E670E080E090E00E945B07A2
:1019C00083E062E041E00E946B0A83E063E041E073
:1019D0000E946B0A83E060E040E00E946B0A83E0B3
:1019E00061E040E00E946B0A64E670E080E090E015
:1019F0000E945B0783E061E040E00E946B0A83E0A5
:101A000062E041E00E946B0A83E060E040E00E94F7
:101A10006B0A83E063E040E00E946B0A64E670E0DA
:101A200080E090E00E945B0783E060E040E00E947D
:101A30006B0A83E061E041E00E946B0A83E062E0B0
:101A400041E00E946B0A83E063E040E00E946B0A81
:101A500064E670E080E090E00E945B0783E060E075
:101A600040E00E946B0A83E063E040E00E946B0A62
:101A700083E061E041E00E946B0A83E062E040E0C5
:101A80000E946B0A64E670E080E090E00E945B07D1
:101A900083E060E041E00E946B0A83E063E040E0A5
:101AA0000E946B0A83E061E041E00E946B0A83E0E0
:101AB00062E040E00E946B0A64E670E080E090E043
:101AC0000E945B0783E060E041E00E946B0A83E0D4
:101AD00063E040E00E946B0A83E061E040E00E9426
:101AE0006B0A83E062E040E00E946B0A64E670E00B
:101AF00080E090E00E945B0783E060E041E00E94AC
:101B00006B0A83E063E041E00E946B0A83E061E0DE
:101B100040E00E946B0A83E062E040E00E946B0AB2
:101B200064E670E080E090E00E945B0789818F5F4F
:101B3000898389818C3008F429CF0F90CF91DF9170
:101B40000895DF93CF930F92CDB7DEB7198285C08A
:101B500083E062E041E00E946B0A83E063E041E0E1
:101B60000E946B0A83E060E040E00E946B0A83E021
:101B700061E040E00E946B0A64E670E080E090E083
:101B80000E945B0783E061E041E00E946B0A83E012
:101B900062E041E00E946B0A83E060E040E00E9466
:101BA0006B0A83E063E040E00E946B0A64E670E049
:101BB00080E090E00E945B0783E060E041E00E94EB
:101BC0006B0A83E061E041E00E946B0A83E062E01F
:101BD00040E00E946B0A83E063E040E00E946B0AF1
:101BE00064E670E080E090E00E945B0783E060E0E4
:101BF00041E00E946B0A83E063E041E00E946B0ACF
:101C000083E061E040E00E946B0A83E062E040E034
:101C10000E946B0A64E670E080E090E00E945B073F
:101C200083E062E041E00E946B0A83E063E041E010
:101C30000E946B0A83E060E040E00E946B0A83E050
:101C400061E040E00E946B0A64E670E080E090E0B2
:101C50000E945B0789818F5F898389818C3008F4BA
:101C600077CF0F90CF91DF910895DF93CF930F92AD
:101C7000CDB7DEB71982D3C083E060E041E00E94B7
:101C80006B0A83E063E041E00E946B0A83E061E05D
:101C900040E00E946B0A83E062E040E00E946B0A31
:101CA00064E670E080E090E00E945B0783E060E023
:101CB00041E00E946B0A83E063E040E00E946B0A0F
:101CC00083E061E040E00E946B0A83E062E040E074
:101CD0000E946B0A64E670E080E090E00E945B077F
:101CE00083E060E041E00E946B0A83E063E040E053
:101CF0000E946B0A83E061E041E00E946B0A83E08E
:101D000062E040E00E946B0A64E670E080E090E0F0
:101D10000E945B0783E060E040E00E946B0A83E082
:101D200063E040E00E946B0A83E061E041E00E94D2
:101D30006B0A83E062E040E00E946B0A64E670E0B8
:101D400080E090E00E945B0783E060E040E00E945A
:101D50006B0A83E061E041E00E946B0A83E062E08D
:101D600041E00E946B0A83E063E040E00E946B0A5E
:101D700064E670E080E090E00E945B0783E061E051
:101D800040E00E946B0A83E062E041E00E946B0A3F
:101D900083E060E040E00E946B0A83E063E040E0A3
:101DA0000E946B0A64E670E080E090E00E945B07AE
:101DB00083E062E041E00E946B0A83E063E041E07F
:101DC0000E946B0A83E060E040E00E946B0A83E0BF
:101DD00061E040E00E946B0A64E670E080E090E021
:101DE0000E945B0783E062E040E00E946B0A83E0B0
:101DF00063E041E00E946B0A83E060E040E00E9403
:101E00006B0A83E061E040E00E946B0A64E670E0E8
:101E100080E090E00E945B0789818F5F89838981E0
:101E20008C3008F429CF0F90CF91DF910895DF9384
:101E3000CF930F92CDB7DEB7198285C083E060E003
:101E400041E00E946B0A83E063E041E00E946B0A7C
:101E500083E061E040E00E946B0A83E062E040E0E2
:101E60000E946B0A64E670E080E090E00E945B07ED
:101E700083E060E041E00E946B0A83E061E041E0C2
:101E80000E946B0A83E062E040E00E946B0A83E0FC
:101E900063E040E00E946B0A64E670E080E090E05E
:101EA0000E945B0783E061E041E00E946B0A83E0EF
:101EB00062E041E00E946B0A83E060E040E00E9443
:101EC0006B0A83E063E040E00E946B0A64E670E026
:101ED00080E090E00E945B0783E062E041E00E94C6
:101EE0006B0A83E063E041E00E946B0A83E060E0FC
:101EF00040E00E946B0A83E061E040E00E946B0AD0
:101F000064E670E080E090E00E945B0783E060E0C0
:101F100041E00E946B0A83E063E041E00E946B0AAB
:101F200083E061E040E00E946B0A83E062E040E011
:101F30000E946B0A64E670E080E090E00E945B071C
:101F400089818F5F898389818C3008F477CF0F90E6
:101F5000CF91DF910895DF93CF93CDB7DEB783E0C4
:101F600062E040E00E946B0A83E063E040E00E9490
:101F70006B0A83E060E040E00E946B0A83E061E06E
:101F800040E00E946B0ACF91DF910895DF93CF93D9
:101F9000CDB7DEB70E94A20C0E94BF0C0E94170FA3
:101FA0000E94A10D0E94350E0E94AB0FF5CF2F921B
:101FB0003F924F925F926F927F928F929F92AF92D9
:101FC000BF92CF92DF92EF92FF920F931F93CF9326
:101FD000DF93CDB7DEB7CA1BDB0B0FB6F894DEBFBD
:101FE0000FBECDBF09942A88398848885F846E84E3
:101FF0007D848C849B84AA84B984C884DF80EE802D
:10200000FD800C811B81AA81B981CE0FD11D0FB635
:10201000F894DEBF0FBECDBFED010895F894FFCF59
:10202000000000000000000000010202030303039F
:102030000404040404040404050505050505050558
:102040000505050505050505060606060606060638
:102050000606060606060606060606060606060620
:102060000606060606060606070707070707070708
:1020700007070707070707070707070707070707F0
:1020800007070707070707070707070707070707E0
:1020900007070707070707070707070707070707D0
:1020A00007070707070707070808080808080808B8
:1020B00008080808080808080808080808080808A0
:1020C0000808080808080808080808080808080890
:1020D0000808080808080808080808080808080880
:1020E0000808080808080808080808080808080870
:1020F0000808080808080808080808080808080860
:10210000080808080808080808080808080808084F
:10211000080808080808080808080808080808083F
:08212000080808080808080877
:00000001FF
